:02000000C22913
:0E000600213083120313FD00FD0B07280800B4
:06001400000000000800DE
:10001A000F3083120313FC004730FD00FD0B132839
:0A002A00FC0B132800000000080082
:1000340083160313B51B21288312871323288312E5
:1000440087178316351B2928831207132B2883123D
:1000540007178316B51A312883128712332883129F
:1000640087168316351A3928831207123B28831200
:1000740007166A183F2807154028071187150A2014
:1000840087118316B5194928831287134B288312C5
:10009400871783163519512883120713532883129F
:1000A40007178316B5185928831287125B28831201
:1000B4008716831635186128831207126328831262
:1000C40007166A18672807156828071187150A2074
:0E00D40087116A1C6F280D2070280320080079
:1000E200831203136A1083163408B5001A206A14A7
:0200F200080004
:1000F4008C28803083160313B1009F28C030B100D0
:100104009F289430B1009F28D430B1009F288030BC
:10011400B1009F28831603133108013A03197B2881
:100124003108023A031980283108033A0319832855
:100134003108043A0319862889283203F00031086B
:10014400F0077008B1007008B5001A206A10EF01BA
:100154006F0883163307840000080319BB28831231
:100164006F088316330784000008B4007120EF0A77
:08017400AA2883126A14080096
:0E017C008312031369088A00680882000800D5
:08018A008312031307100800A3
:08019200831203130714080097
:10019A00013083160313B5001A200230FB00043025
:1001AA00FC00BA30FD00FD0BD828FC0BD828FB0B4D
:1001BA00D828000001308316B1000530B200203083
:1001CA00B3007A2002308316B1000230B200383010
:1001DA00B3007A200B30FB002630FC005D30FD00B6
:1001EA00FD0BF528FC0BF528FB0BF5280000000099
:1001FA0001308316B1000530B2003230B3007A20E4
:10020A0002308316B1000230B2002630B3007A20E1
:10021A000630FB001330FC00AD30FD00FD0B132946
:0E022A00FC0B1329FB0B132900000000080039
:10023800BE208A110A128000840AE80A0319E90A12
:08024800F003031D1C2908004E
:1002500083120313F101F20100307202031D3229EF
:100260003230710203184D2906170430FC00E430C7
:10027000FD00FD0B3929FC0B392900000613313034
:10028000FC000B30FD00FD0B4329FC0B4329000053
:0C0290000000F10A0319F20A2C290800F2
:10029C00831603138711071107128712071387138D
:1002AC0083128711071187130713871207120D206A
:1002BC000D200D208716071687150A2087110D2093
:1002CC0087150A2087110D2087150A2087110D200C
:1002DC00071287150A2087110D2087150A20871110
:1002EC008712871787150A2087110D208713071689
:1002FC0087150A208711071287150A2087110D20F0
:10030C0087150A208711071687150A2087110D20DB
:10031C00071287150A2087118717071787160716E4
:0C032C0087150A2087110D206A140800B4
:1003380083120313F101F20100307202031DA62992
:10034800323071020318C12906170330FC0012303D
:10035800FD00FD0BAD29FC0BAD2900000613323062
:10036800FC00DD30FD00FD0BB729FC0BB7290000B0
:0C0378000000F10A0319F20AA029080095
:1003840078238316031386018701FF3088008312C4
:100394008601880187018316A901AA018312ED0150
:1003A400EE01EB01EC018316AF01B001AD01AE012A
:1003B400AB01AC019C214E2101308316B5001A20FB
:1003C4000C308316B5001A20C52001308316B10005
:1003D4000530B2005630B3007A20C5200615061643
:1003E400081CF92901308316A9000030AA008316DD
:1003F40000302A06031D002A01302906031D092A9C
:100404008312881C092A0130ED000030EE008312AB
:10041400881E112A01308316AF000030B000831605
:1004240000303006031D182A01302F06031D212A2F
:100434008312081E212A0130EB000030EC008312E5
:1004440000306E06031D282A01306D06031D952A0F
:10045400003083162A06031D312A01302906031DA4
:100464008A2A8312061186141030FB003930FC00EE
:100474000D30FD00FD0B3C2AFC0B3C2AFB0B3C2AF7
:1004840000000000C920CD2086100612861606142E
:1004940028218819512ACD20061486164B2A881D36
:1004A400572ACD2006148616512A06140430FB0060
:1004B4000C30FC003330FD00FD0B5E2AFC0B5E2A81
:1004C400FB0B5E2A00000000061086141030FB00AF
:1004D4003930FC000D30FD00FD0B6E2AFC0B6E2A3A
:1004E400FB0B6E2A000000009C2101308316B5002E
:1004F4001A20C520861086128316A901AA01831228
:10050400ED01EE01EB01EC018316AF01B001942A79
:100514000130B1000530B2004D30B3007A20061529
:1005240086100610A02A01308316B1000530B200EF
:100534004430B3007A20061586100610831200306A
:100544006C06031DA72A01306B06031D142B003013
:1005540083163006031DB02A01302F06031D092B14
:100564008312061186141030FB003930FC000D3064
:10057400FD00FD0BBB2AFC0BBB2AFB0BBB2A0000B6
:100584000000C920CD2086100612861606142821E4
:100594000819D02ACD2006148616CA2A081DD62A80
:1005A400CD2006148616D02A06140430FB000C3025
:1005B400FC003330FD00FD0BDD2AFC0BDD2AFB0BB8
:1005C400DD2A00000000061086141030FB003930CC
:1005D400FC000D30FD00FD0BED2AFC0BED2AFB0B9E
:1005E400ED2A000000009C21C52001308316B500CF
:1005F4001A20861086128316A901AA018312ED011E
:10060400EE01EB01EC018316AF01B001132B0130B5
:10061400B1000530B200A030B3007A200615861070
:1006240006101F2B01308316B1000530B2005F3075
:0E063400B3007A20061586100610E729202B49
:1006F00020308400483083120313F0002630E800D5
:100700000330E9001C21A03084000930F0006E3075
:0A071000E8000330E9001C21080096
:0C064C00533454344F3450342134003403
:1006580020342034203420342034203420342034F2
:0806680020342034203400345A
:0C067000203420342034203420340034A6
:10067C0074347234613469346E34203461346C34C3
:08068C0065347234743400344B
:10069400573445344C3443344F344D344534213489
:0206A400003420
:1006A600573445344C3443344F344D344534213477
:0206B60000340E
:1006B800573445344C3443344F344D344534213465
:0206C8000034FC
:1006CA00573445344C3443344F344D344534213453
:0206DA000034EA
:1006DC00573445344C3443344F344D344534213441
:0206EC000034D8
:02400E004A2F37
:00000001FF
